{
    "_format": "hh-sol-artifact-1",
    "contractName": "PokeLoan",
    "sourceName": "contracts/PokeLoan.sol",
    "abi": [
        {
            "inputs": [
                {
                    "internalType": "uint256",
                    "name": "_interest",
                    "type": "uint256"
                }
            ],
            "stateMutability": "nonpayable",
            "type": "constructor"
        },
        {
            "anonymous": false,
            "inputs": [
                {
                    "indexed": true,
                    "internalType": "address",
                    "name": "borrower",
                    "type": "address"
                },
                {
                    "indexed": false,
                    "internalType": "uint256",
                    "name": "amount",
                    "type": "uint256"
                },
                {
                    "indexed": false,
                    "internalType": "uint256",
                    "name": "issue_amount",
                    "type": "uint256"
                },
                {
                    "indexed": false,
                    "internalType": "uint256",
                    "name": "timestamp",
                    "type": "uint256"
                }
            ],
            "name": "Borrow",
            "type": "event"
        },
        {
            "anonymous": false,
            "inputs": [
                {
                    "indexed": true,
                    "internalType": "address",
                    "name": "previousOwner",
                    "type": "address"
                },
                {
                    "indexed": true,
                    "internalType": "address",
                    "name": "newOwner",
                    "type": "address"
                }
            ],
            "name": "OwnershipTransferred",
            "type": "event"
        },
        {
            "anonymous": false,
            "inputs": [
                {
                    "indexed": true,
                    "internalType": "address",
                    "name": "borrower",
                    "type": "address"
                },
                {
                    "indexed": false,
                    "internalType": "uint256",
                    "name": "amount",
                    "type": "uint256"
                },
                {
                    "indexed": false,
                    "internalType": "uint256",
                    "name": "repay_amount",
                    "type": "uint256"
                },
                {
                    "indexed": false,
                    "internalType": "uint256",
                    "name": "timestamp",
                    "type": "uint256"
                }
            ],
            "name": "Repay",
            "type": "event"
        },
        {
            "inputs": [],
            "name": "borrow",
            "outputs": [],
            "stateMutability": "payable",
            "type": "function"
        },
        {
            "inputs": [],
            "name": "ethToPoke",
            "outputs": [
                {
                    "internalType": "uint256",
                    "name": "",
                    "type": "uint256"
                }
            ],
            "stateMutability": "view",
            "type": "function"
        },
        {
            "inputs": [],
            "name": "interest",
            "outputs": [
                {
                    "internalType": "uint256",
                    "name": "",
                    "type": "uint256"
                }
            ],
            "stateMutability": "view",
            "type": "function"
        },
        {
            "inputs": [],
            "name": "owner",
            "outputs": [
                {
                    "internalType": "address",
                    "name": "",
                    "type": "address"
                }
            ],
            "stateMutability": "view",
            "type": "function"
        },
        {
            "inputs": [],
            "name": "pokeBalance",
            "outputs": [
                {
                    "internalType": "uint256",
                    "name": "",
                    "type": "uint256"
                }
            ],
            "stateMutability": "view",
            "type": "function"
        },
        {
            "inputs": [],
            "name": "pokecoin",
            "outputs": [
                {
                    "internalType": "address",
                    "name": "",
                    "type": "address"
                }
            ],
            "stateMutability": "view",
            "type": "function"
        },
        {
            "inputs": [],
            "name": "renounceOwnership",
            "outputs": [],
            "stateMutability": "nonpayable",
            "type": "function"
        },
        {
            "inputs": [
                {
                    "internalType": "uint256",
                    "name": "_amount",
                    "type": "uint256"
                }
            ],
            "name": "repay",
            "outputs": [],
            "stateMutability": "nonpayable",
            "type": "function"
        },
        {
            "inputs": [
                {
                    "internalType": "address",
                    "name": "newOwner",
                    "type": "address"
                }
            ],
            "name": "transferOwnership",
            "outputs": [],
            "stateMutability": "nonpayable",
            "type": "function"
        }
    ],
    "bytecode": "0x6080604052735fbdb2315678afecb367f032d93f642f64180aa3600160006101000a81548173ffffffffffffffffffffffffffffffffffffffff021916908373ffffffffffffffffffffffffffffffffffffffff160217905550600a6003553480156200006b57600080fd5b50604051620011a0380380620011a08339818101604052810190620000919190620001e8565b620000b1620000a56200010560201b60201c565b6200010d60201b60201c565b60008111620000f7576040517f08c379a0000000000000000000000000000000000000000000000000000000008152600401620000ee906200023b565b60405180910390fd5b8060028190555050620002bb565b600033905090565b60008060009054906101000a900473ffffffffffffffffffffffffffffffffffffffff169050816000806101000a81548173ffffffffffffffffffffffffffffffffffffffff021916908373ffffffffffffffffffffffffffffffffffffffff1602179055508173ffffffffffffffffffffffffffffffffffffffff168173ffffffffffffffffffffffffffffffffffffffff167f8be0079c531659141344cd1fd0a4f28419497f9722a3daafe3b4186f6b6457e060405160405180910390a35050565b600081519050620001e281620002a1565b92915050565b600060208284031215620001fb57600080fd5b60006200020b84828501620001d1565b91505092915050565b6000620002236010836200025d565b9150620002308262000278565b602082019050919050565b60006020820190508181036000830152620002568162000214565b9050919050565b600082825260208201905092915050565b6000819050919050565b7f496e76616c696420496e74657265737400000000000000000000000000000000600082015250565b620002ac816200026e565b8114620002b857600080fd5b50565b610ed580620002cb6000396000f3fe6080604052600436106100865760003560e01c80639ecbd796116100595780639ecbd79614610121578063bd346a131461014c578063c392f76614610177578063e68d3569146101a2578063f2fde38b146101ac57610086565b80632fddd46a1461008b578063371fd8e6146100b6578063715018a6146100df5780638da5cb5b146100f6575b600080fd5b34801561009757600080fd5b506100a06101d5565b6040516100ad9190610acd565b60405180910390f35b3480156100c257600080fd5b506100dd60048036038101906100d891906109d1565b6101fb565b005b3480156100eb57600080fd5b506100f4610457565b005b34801561010257600080fd5b5061010b61046b565b6040516101189190610acd565b60405180910390f35b34801561012d57600080fd5b50610136610494565b6040516101439190610bc8565b60405180910390f35b34801561015857600080fd5b50610161610551565b60405161016e9190610bc8565b60405180910390f35b34801561018357600080fd5b5061018c610557565b6040516101999190610bc8565b60405180910390f35b6101aa61055d565b005b3480156101b857600080fd5b506101d360048036038101906101ce919061097f565b61075d565b005b600160009054906101000a900473ffffffffffffffffffffffffffffffffffffffff1681565b60006003546064600254846102109190610c5c565b61021a9190610c2b565b836102259190610cb6565b61022f9190610c5c565b905080471015610274576040517f08c379a000000000000000000000000000000000000000000000000000000000815260040161026b90610b88565b60405180910390fd5b6000600160009054906101000a900473ffffffffffffffffffffffffffffffffffffffff1690508073ffffffffffffffffffffffffffffffffffffffff1663095ea7b333856040518363ffffffff1660e01b81526004016102d6929190610b1f565b602060405180830381600087803b1580156102f057600080fd5b505af1158015610304573d6000803e3d6000fd5b505050506040513d601f19601f8201168201806040525081019061032891906109a8565b508073ffffffffffffffffffffffffffffffffffffffff166323b872dd3330866040518463ffffffff1660e01b815260040161036693929190610ae8565b602060405180830381600087803b15801561038057600080fd5b505af1158015610394573d6000803e3d6000fd5b505050506040513d601f19601f820116820180604052508101906103b891906109a8565b503373ffffffffffffffffffffffffffffffffffffffff166108fc839081150290604051600060405180830381858888f193505050501580156103ff573d6000803e3d6000fd5b503373ffffffffffffffffffffffffffffffffffffffff167f2fe77b1c99aca6b022b8efc6e3e8dd1b48b30748709339b65c50ef3263443e0984844260405161044a93929190610be3565b60405180910390a2505050565b61045f6107e1565b610469600061085f565b565b60008060009054906101000a900473ffffffffffffffffffffffffffffffffffffffff16905090565b600080600160009054906101000a900473ffffffffffffffffffffffffffffffffffffffff16905060008173ffffffffffffffffffffffffffffffffffffffff166370a08231306040518263ffffffff1660e01b81526004016104f79190610acd565b60206040518083038186803b15801561050f57600080fd5b505afa158015610523573d6000803e3d6000fd5b505050506040513d601f19601f8201168201806040525081019061054791906109fa565b9050809250505090565b60035481565b60025481565b60003490506000600160009054906101000a900473ffffffffffffffffffffffffffffffffffffffff16905060008173ffffffffffffffffffffffffffffffffffffffff166370a08231306040518263ffffffff1660e01b81526004016105c49190610acd565b60206040518083038186803b1580156105dc57600080fd5b505afa1580156105f0573d6000803e3d6000fd5b505050506040513d601f19601f8201168201806040525081019061061491906109fa565b90506000600354846106269190610c5c565b90506000841180156106385750818111155b610677576040517f08c379a000000000000000000000000000000000000000000000000000000000815260040161066e90610b48565b60405180910390fd5b8273ffffffffffffffffffffffffffffffffffffffff1663a9059cbb33836040518363ffffffff1660e01b81526004016106b2929190610b1f565b602060405180830381600087803b1580156106cc57600080fd5b505af11580156106e0573d6000803e3d6000fd5b505050506040513d601f19601f8201168201806040525081019061070491906109a8565b503373ffffffffffffffffffffffffffffffffffffffff167f13ed6866d4e1ee6da46f845c46d7e54120883d75c5ea9a2dacc1c4ca8984ab8085834260405161074f93929190610be3565b60405180910390a250505050565b6107656107e1565b600073ffffffffffffffffffffffffffffffffffffffff168173ffffffffffffffffffffffffffffffffffffffff1614156107d5576040517f08c379a00000000000000000000000000000000000000000000000000000000081526004016107cc90610b68565b60405180910390fd5b6107de8161085f565b50565b6107e9610923565b73ffffffffffffffffffffffffffffffffffffffff1661080761046b565b73ffffffffffffffffffffffffffffffffffffffff161461085d576040517f08c379a000000000000000000000000000000000000000000000000000000000815260040161085490610ba8565b60405180910390fd5b565b60008060009054906101000a900473ffffffffffffffffffffffffffffffffffffffff169050816000806101000a81548173ffffffffffffffffffffffffffffffffffffffff021916908373ffffffffffffffffffffffffffffffffffffffff1602179055508173ffffffffffffffffffffffffffffffffffffffff168173ffffffffffffffffffffffffffffffffffffffff167f8be0079c531659141344cd1fd0a4f28419497f9722a3daafe3b4186f6b6457e060405160405180910390a35050565b600033905090565b60008135905061093a81610e5a565b92915050565b60008151905061094f81610e71565b92915050565b60008135905061096481610e88565b92915050565b60008151905061097981610e88565b92915050565b60006020828403121561099157600080fd5b600061099f8482850161092b565b91505092915050565b6000602082840312156109ba57600080fd5b60006109c884828501610940565b91505092915050565b6000602082840312156109e357600080fd5b60006109f184828501610955565b91505092915050565b600060208284031215610a0c57600080fd5b6000610a1a8482850161096a565b91505092915050565b610a2c81610cea565b82525050565b6000610a3f601c83610c1a565b9150610a4a82610d90565b602082019050919050565b6000610a62602683610c1a565b9150610a6d82610db9565b604082019050919050565b6000610a85601883610c1a565b9150610a9082610e08565b602082019050919050565b6000610aa8602083610c1a565b9150610ab382610e31565b602082019050919050565b610ac781610d28565b82525050565b6000602082019050610ae26000830184610a23565b92915050565b6000606082019050610afd6000830186610a23565b610b0a6020830185610a23565b610b176040830184610abe565b949350505050565b6000604082019050610b346000830185610a23565b610b416020830184610abe565b9392505050565b60006020820190508181036000830152610b6181610a32565b9050919050565b60006020820190508181036000830152610b8181610a55565b9050919050565b60006020820190508181036000830152610ba181610a78565b9050919050565b60006020820190508181036000830152610bc181610a9b565b9050919050565b6000602082019050610bdd6000830184610abe565b92915050565b6000606082019050610bf86000830186610abe565b610c056020830185610abe565b610c126040830184610abe565b949350505050565b600082825260208201905092915050565b6000610c3682610d28565b9150610c4183610d28565b925082610c5157610c50610d61565b5b828204905092915050565b6000610c6782610d28565b9150610c7283610d28565b9250817fffffffffffffffffffffffffffffffffffffffffffffffffffffffffffffffff0483118215151615610cab57610caa610d32565b5b828202905092915050565b6000610cc182610d28565b9150610ccc83610d28565b925082821015610cdf57610cde610d32565b5b828203905092915050565b6000610cf582610d08565b9050919050565b60008115159050919050565b600073ffffffffffffffffffffffffffffffffffffffff82169050919050565b6000819050919050565b7f4e487b7100000000000000000000000000000000000000000000000000000000600052601160045260246000fd5b7f4e487b7100000000000000000000000000000000000000000000000000000000600052601260045260246000fd5b7f446f6e2774206861766520656e6f75676820506f6b65537461626c6500000000600082015250565b7f4f776e61626c653a206e6577206f776e657220697320746865207a65726f206160008201527f6464726573730000000000000000000000000000000000000000000000000000602082015250565b7f496e73756666696369656e74204554482042616c616e63650000000000000000600082015250565b7f4f776e61626c653a2063616c6c6572206973206e6f7420746865206f776e6572600082015250565b610e6381610cea565b8114610e6e57600080fd5b50565b610e7a81610cfc565b8114610e8557600080fd5b50565b610e9181610d28565b8114610e9c57600080fd5b5056fea26469706673582212206ccf6f46164c0c2412cd720358bb43945ea37a6b450c635167e05835e6d24ef264736f6c63430008040033",
    "linkReferences": {},
    "deployedLinkReferences": {}
}